{
  "_format": "hh-sol-artifact-1",
  "contractName": "System_NFT",
  "sourceName": "contracts/System_NFT.sol",
  "abi": [
    {
      "inputs": [
        {
          "internalType": "string",
          "name": "name",
          "type": "string"
        },
        {
          "internalType": "string",
          "name": "symbol",
          "type": "string"
        }
      ],
      "stateMutability": "nonpayable",
      "type": "constructor"
    },
    {
      "anonymous": false,
      "inputs": [
        {
          "indexed": true,
          "internalType": "address",
          "name": "owner",
          "type": "address"
        },
        {
          "indexed": true,
          "internalType": "address",
          "name": "approved",
          "type": "address"
        },
        {
          "indexed": true,
          "internalType": "uint256",
          "name": "tokenId",
          "type": "uint256"
        }
      ],
      "name": "Approval",
      "type": "event"
    },
    {
      "anonymous": false,
      "inputs": [
        {
          "indexed": true,
          "internalType": "address",
          "name": "owner",
          "type": "address"
        },
        {
          "indexed": true,
          "internalType": "address",
          "name": "operator",
          "type": "address"
        },
        {
          "indexed": false,
          "internalType": "bool",
          "name": "approved",
          "type": "bool"
        }
      ],
      "name": "ApprovalForAll",
      "type": "event"
    },
    {
      "anonymous": false,
      "inputs": [
        {
          "indexed": true,
          "internalType": "address",
          "name": "from",
          "type": "address"
        },
        {
          "indexed": true,
          "internalType": "address",
          "name": "to",
          "type": "address"
        },
        {
          "indexed": true,
          "internalType": "uint256",
          "name": "tokenId",
          "type": "uint256"
        }
      ],
      "name": "Transfer",
      "type": "event"
    },
    {
      "inputs": [
        {
          "internalType": "address",
          "name": "to",
          "type": "address"
        },
        {
          "internalType": "uint256",
          "name": "tokenId",
          "type": "uint256"
        }
      ],
      "name": "approve",
      "outputs": [],
      "stateMutability": "nonpayable",
      "type": "function"
    },
    {
      "inputs": [
        {
          "internalType": "address",
          "name": "owner",
          "type": "address"
        }
      ],
      "name": "balanceOf",
      "outputs": [
        {
          "internalType": "uint256",
          "name": "",
          "type": "uint256"
        }
      ],
      "stateMutability": "view",
      "type": "function"
    },
    {
      "inputs": [
        {
          "internalType": "address",
          "name": "recipient",
          "type": "address"
        },
        {
          "internalType": "string[]",
          "name": "tokenURIsArray",
          "type": "string[]"
        }
      ],
      "name": "batchMint",
      "outputs": [
        {
          "internalType": "uint256[]",
          "name": "",
          "type": "uint256[]"
        }
      ],
      "stateMutability": "nonpayable",
      "type": "function"
    },
    {
      "inputs": [
        {
          "internalType": "uint256",
          "name": "tokenId",
          "type": "uint256"
        }
      ],
      "name": "getApproved",
      "outputs": [
        {
          "internalType": "address",
          "name": "",
          "type": "address"
        }
      ],
      "stateMutability": "view",
      "type": "function"
    },
    {
      "inputs": [
        {
          "internalType": "address",
          "name": "owner",
          "type": "address"
        },
        {
          "internalType": "address",
          "name": "operator",
          "type": "address"
        }
      ],
      "name": "isApprovedForAll",
      "outputs": [
        {
          "internalType": "bool",
          "name": "",
          "type": "bool"
        }
      ],
      "stateMutability": "view",
      "type": "function"
    },
    {
      "inputs": [
        {
          "internalType": "address",
          "name": "recipient",
          "type": "address"
        },
        {
          "internalType": "string",
          "name": "_tokenURI",
          "type": "string"
        }
      ],
      "name": "mintNFT",
      "outputs": [
        {
          "internalType": "uint256",
          "name": "",
          "type": "uint256"
        }
      ],
      "stateMutability": "nonpayable",
      "type": "function"
    },
    {
      "inputs": [],
      "name": "name",
      "outputs": [
        {
          "internalType": "string",
          "name": "",
          "type": "string"
        }
      ],
      "stateMutability": "view",
      "type": "function"
    },
    {
      "inputs": [
        {
          "internalType": "uint256",
          "name": "tokenId",
          "type": "uint256"
        }
      ],
      "name": "ownerOf",
      "outputs": [
        {
          "internalType": "address",
          "name": "",
          "type": "address"
        }
      ],
      "stateMutability": "view",
      "type": "function"
    },
    {
      "inputs": [],
      "name": "promptDescription",
      "outputs": [
        {
          "internalType": "string",
          "name": "",
          "type": "string"
        }
      ],
      "stateMutability": "view",
      "type": "function"
    },
    {
      "inputs": [
        {
          "internalType": "address",
          "name": "from",
          "type": "address"
        },
        {
          "internalType": "address",
          "name": "to",
          "type": "address"
        },
        {
          "internalType": "uint256",
          "name": "tokenId",
          "type": "uint256"
        }
      ],
      "name": "safeTransferFrom",
      "outputs": [],
      "stateMutability": "nonpayable",
      "type": "function"
    },
    {
      "inputs": [
        {
          "internalType": "address",
          "name": "from",
          "type": "address"
        },
        {
          "internalType": "address",
          "name": "to",
          "type": "address"
        },
        {
          "internalType": "uint256",
          "name": "tokenId",
          "type": "uint256"
        },
        {
          "internalType": "bytes",
          "name": "data",
          "type": "bytes"
        }
      ],
      "name": "safeTransferFrom",
      "outputs": [],
      "stateMutability": "nonpayable",
      "type": "function"
    },
    {
      "inputs": [
        {
          "internalType": "address",
          "name": "operator",
          "type": "address"
        },
        {
          "internalType": "bool",
          "name": "approved",
          "type": "bool"
        }
      ],
      "name": "setApprovalForAll",
      "outputs": [],
      "stateMutability": "nonpayable",
      "type": "function"
    },
    {
      "inputs": [
        {
          "internalType": "bytes4",
          "name": "interfaceId",
          "type": "bytes4"
        }
      ],
      "name": "supportsInterface",
      "outputs": [
        {
          "internalType": "bool",
          "name": "",
          "type": "bool"
        }
      ],
      "stateMutability": "view",
      "type": "function"
    },
    {
      "inputs": [],
      "name": "symbol",
      "outputs": [
        {
          "internalType": "string",
          "name": "",
          "type": "string"
        }
      ],
      "stateMutability": "view",
      "type": "function"
    },
    {
      "inputs": [
        {
          "internalType": "uint256",
          "name": "tokenId",
          "type": "uint256"
        }
      ],
      "name": "tokenURI",
      "outputs": [
        {
          "internalType": "string",
          "name": "",
          "type": "string"
        }
      ],
      "stateMutability": "view",
      "type": "function"
    },
    {
      "inputs": [
        {
          "internalType": "address",
          "name": "from",
          "type": "address"
        },
        {
          "internalType": "address",
          "name": "to",
          "type": "address"
        },
        {
          "internalType": "uint256",
          "name": "tokenId",
          "type": "uint256"
        }
      ],
      "name": "transferFrom",
      "outputs": [],
      "stateMutability": "nonpayable",
      "type": "function"
    }
  ],
  "bytecode": "0x60806040526040518060400160405280601781526020017f5375706572206361727320696e204e465420576f726c64000000000000000000815250600790816200004a919062000369565b503480156200005857600080fd5b50604051620033e5380380620033e583398181016040528101906200007e9190620005b4565b8181816000908162000091919062000369565b508060019081620000a3919062000369565b50505033600960006101000a81548173ffffffffffffffffffffffffffffffffffffffff021916908373ffffffffffffffffffffffffffffffffffffffff160217905550505062000639565b600081519050919050565b7f4e487b7100000000000000000000000000000000000000000000000000000000600052604160045260246000fd5b7f4e487b7100000000000000000000000000000000000000000000000000000000600052602260045260246000fd5b600060028204905060018216806200017157607f821691505b60208210810362000187576200018662000129565b5b50919050565b60008190508160005260206000209050919050565b60006020601f8301049050919050565b600082821b905092915050565b600060088302620001f17fffffffffffffffffffffffffffffffffffffffffffffffffffffffffffffffff82620001b2565b620001fd8683620001b2565b95508019841693508086168417925050509392505050565b6000819050919050565b6000819050919050565b60006200024a620002446200023e8462000215565b6200021f565b62000215565b9050919050565b6000819050919050565b620002668362000229565b6200027e620002758262000251565b848454620001bf565b825550505050565b600090565b6200029562000286565b620002a28184846200025b565b505050565b5b81811015620002ca57620002be6000826200028b565b600181019050620002a8565b5050565b601f8211156200031957620002e3816200018d565b620002ee84620001a2565b81016020851015620002fe578190505b620003166200030d85620001a2565b830182620002a7565b50505b505050565b600082821c905092915050565b60006200033e600019846008026200031e565b1980831691505092915050565b60006200035983836200032b565b9150826002028217905092915050565b6200037482620000ef565b67ffffffffffffffff81111562000390576200038f620000fa565b5b6200039c825462000158565b620003a9828285620002ce565b600060209050601f831160018114620003e15760008415620003cc578287015190505b620003d885826200034b565b86555062000448565b601f198416620003f1866200018d565b60005b828110156200041b57848901518255600182019150602085019450602081019050620003f4565b868310156200043b578489015162000437601f8916826200032b565b8355505b6001600288020188555050505b505050505050565b6000604051905090565b600080fd5b600080fd5b600080fd5b600080fd5b6000601f19601f8301169050919050565b6200048a826200046e565b810181811067ffffffffffffffff82111715620004ac57620004ab620000fa565b5b80604052505050565b6000620004c162000450565b9050620004cf82826200047f565b919050565b600067ffffffffffffffff821115620004f257620004f1620000fa565b5b620004fd826200046e565b9050602081019050919050565b60005b838110156200052a5780820151818401526020810190506200050d565b60008484015250505050565b60006200054d6200054784620004d4565b620004b5565b9050828152602081018484840111156200056c576200056b62000469565b5b620005798482856200050a565b509392505050565b600082601f83011262000599576200059862000464565b5b8151620005ab84826020860162000536565b91505092915050565b60008060408385031215620005ce57620005cd6200045a565b5b600083015167ffffffffffffffff811115620005ef57620005ee6200045f565b5b620005fd8582860162000581565b925050602083015167ffffffffffffffff8111156200062157620006206200045f565b5b6200062f8582860162000581565b9150509250929050565b612d9c80620006496000396000f3fe608060405234801561001057600080fd5b50600436106101005760003560e01c80639536373111610097578063c87b56dd11610066578063c87b56dd146102ab578063e985e9c5146102db578063eacabe141461030b578063f2f18baa1461033b57610100565b8063953637311461023757806395d89b4114610255578063a22cb46514610273578063b88d4fde1461028f57610100565b806323b872dd116100d357806323b872dd1461019f57806342842e0e146101bb5780636352211e146101d757806370a082311461020757610100565b806301ffc9a71461010557806306fdde0314610135578063081812fc14610153578063095ea7b314610183575b600080fd5b61011f600480360381019061011a919061192e565b61036b565b60405161012c9190611976565b60405180910390f35b61013d61044d565b60405161014a9190611a21565b60405180910390f35b61016d60048036038101906101689190611a79565b6104df565b60405161017a9190611ae7565b60405180910390f35b61019d60048036038101906101989190611b2e565b610525565b005b6101b960048036038101906101b49190611b6e565b61063c565b005b6101d560048036038101906101d09190611b6e565b61069c565b005b6101f160048036038101906101ec9190611a79565b6106bc565b6040516101fe9190611ae7565b60405180910390f35b610221600480360381019061021c9190611bc1565b610742565b60405161022e9190611bfd565b60405180910390f35b61023f6107f9565b60405161024c9190611a21565b60405180910390f35b61025d61088b565b60405161026a9190611a21565b60405180910390f35b61028d60048036038101906102889190611c44565b61091d565b005b6102a960048036038101906102a49190611db9565b610933565b005b6102c560048036038101906102c09190611a79565b610995565b6040516102d29190611a21565b60405180910390f35b6102f560048036038101906102f09190611e3c565b610a82565b6040516103029190611976565b60405180910390f35b61032560048036038101906103209190611f1d565b610b16565b6040516103329190611bfd565b60405180910390f35b6103556004803603810190610350919061205f565b610bde565b6040516103629190612179565b60405180910390f35b60007f80ac58cd000000000000000000000000000000000000000000000000000000007bffffffffffffffffffffffffffffffffffffffffffffffffffffffff1916827bffffffffffffffffffffffffffffffffffffffffffffffffffffffff1916148061043657507f5b5e139f000000000000000000000000000000000000000000000000000000007bffffffffffffffffffffffffffffffffffffffffffffffffffffffff1916827bffffffffffffffffffffffffffffffffffffffffffffffffffffffff1916145b80610446575061044582610c9b565b5b9050919050565b60606000805461045c906121ca565b80601f0160208091040260200160405190810160405280929190818152602001828054610488906121ca565b80156104d55780601f106104aa576101008083540402835291602001916104d5565b820191906000526020600020905b8154815290600101906020018083116104b857829003601f168201915b5050505050905090565b60006104ea82610d05565b6004600083815260200190815260200160002060009054906101000a900473ffffffffffffffffffffffffffffffffffffffff169050919050565b6000610530826106bc565b90508073ffffffffffffffffffffffffffffffffffffffff168373ffffffffffffffffffffffffffffffffffffffff16036105a0576040517f08c379a00000000000000000000000000000000000000000000000000000000081526004016105979061226d565b60405180910390fd5b8073ffffffffffffffffffffffffffffffffffffffff166105bf610d50565b73ffffffffffffffffffffffffffffffffffffffff1614806105ee57506105ed816105e8610d50565b610a82565b5b61062d576040517f08c379a0000000000000000000000000000000000000000000000000000000008152600401610624906122ff565b60405180910390fd5b6106378383610d58565b505050565b61064d610647610d50565b82610e11565b61068c576040517f08c379a000000000000000000000000000000000000000000000000000000000815260040161068390612391565b60405180910390fd5b610697838383610ea6565b505050565b6106b783838360405180602001604052806000815250610933565b505050565b6000806106c88361119f565b9050600073ffffffffffffffffffffffffffffffffffffffff168173ffffffffffffffffffffffffffffffffffffffff1603610739576040517f08c379a0000000000000000000000000000000000000000000000000000000008152600401610730906123fd565b60405180910390fd5b80915050919050565b60008073ffffffffffffffffffffffffffffffffffffffff168273ffffffffffffffffffffffffffffffffffffffff16036107b2576040517f08c379a00000000000000000000000000000000000000000000000000000000081526004016107a99061248f565b60405180910390fd5b600360008373ffffffffffffffffffffffffffffffffffffffff1673ffffffffffffffffffffffffffffffffffffffff168152602001908152602001600020549050919050565b606060078054610808906121ca565b80601f0160208091040260200160405190810160405280929190818152602001828054610834906121ca565b80156108815780601f1061085657610100808354040283529160200191610881565b820191906000526020600020905b81548152906001019060200180831161086457829003601f168201915b5050505050905090565b60606001805461089a906121ca565b80601f01602080910402602001604051908101604052809291908181526020018280546108c6906121ca565b80156109135780601f106108e857610100808354040283529160200191610913565b820191906000526020600020905b8154815290600101906020018083116108f657829003601f168201915b5050505050905090565b61092f610928610d50565b83836111dc565b5050565b61094461093e610d50565b83610e11565b610983576040517f08c379a000000000000000000000000000000000000000000000000000000000815260040161097a90612391565b60405180910390fd5b61098f84848484611348565b50505050565b60606109a0826113a4565b6109df576040517f08c379a00000000000000000000000000000000000000000000000000000000081526004016109d690612521565b60405180910390fd5b6008600083815260200190815260200160002080546109fd906121ca565b80601f0160208091040260200160405190810160405280929190818152602001828054610a29906121ca565b8015610a765780601f10610a4b57610100808354040283529160200191610a76565b820191906000526020600020905b815481529060010190602001808311610a5957829003601f168201915b50505050509050919050565b6000600560008473ffffffffffffffffffffffffffffffffffffffff1673ffffffffffffffffffffffffffffffffffffffff16815260200190815260200160002060008373ffffffffffffffffffffffffffffffffffffffff1673ffffffffffffffffffffffffffffffffffffffff16815260200190815260200160002060009054906101000a900460ff16905092915050565b6000600960009054906101000a900473ffffffffffffffffffffffffffffffffffffffff1673ffffffffffffffffffffffffffffffffffffffff163373ffffffffffffffffffffffffffffffffffffffff1614610ba8576040517f08c379a0000000000000000000000000000000000000000000000000000000008152600401610b9f906125b3565b60405180910390fd5b6000610bb460066113e5565b9050610bc084826113f3565b610bca8184611411565b610bd4600661147e565b8091505092915050565b60606000825167ffffffffffffffff811115610bfd57610bfc611c8e565b5b604051908082528060200260200182016040528015610c2b5781602001602082028036833780820191505090505b50905060005b8351811015610c9057610c5e85858381518110610c5157610c506125d3565b5b6020026020010151610b16565b828281518110610c7157610c706125d3565b5b6020026020010181815250508080610c8890612631565b915050610c31565b508091505092915050565b60007f01ffc9a7000000000000000000000000000000000000000000000000000000007bffffffffffffffffffffffffffffffffffffffffffffffffffffffff1916827bffffffffffffffffffffffffffffffffffffffffffffffffffffffff1916149050919050565b610d0e816113a4565b610d4d576040517f08c379a0000000000000000000000000000000000000000000000000000000008152600401610d44906123fd565b60405180910390fd5b50565b600033905090565b816004600083815260200190815260200160002060006101000a81548173ffffffffffffffffffffffffffffffffffffffff021916908373ffffffffffffffffffffffffffffffffffffffff160217905550808273ffffffffffffffffffffffffffffffffffffffff16610dcb836106bc565b73ffffffffffffffffffffffffffffffffffffffff167f8c5be1e5ebec7d5bd14f71427d1e84f3dd0314c0f7b2291e5b200ac8c7c3b92560405160405180910390a45050565b600080610e1d836106bc565b90508073ffffffffffffffffffffffffffffffffffffffff168473ffffffffffffffffffffffffffffffffffffffff161480610e5f5750610e5e8185610a82565b5b80610e9d57508373ffffffffffffffffffffffffffffffffffffffff16610e85846104df565b73ffffffffffffffffffffffffffffffffffffffff16145b91505092915050565b8273ffffffffffffffffffffffffffffffffffffffff16610ec6826106bc565b73ffffffffffffffffffffffffffffffffffffffff1614610f1c576040517f08c379a0000000000000000000000000000000000000000000000000000000008152600401610f13906126eb565b60405180910390fd5b600073ffffffffffffffffffffffffffffffffffffffff168273ffffffffffffffffffffffffffffffffffffffff1603610f8b576040517f08c379a0000000000000000000000000000000000000000000000000000000008152600401610f829061277d565b60405180910390fd5b610f988383836001611494565b8273ffffffffffffffffffffffffffffffffffffffff16610fb8826106bc565b73ffffffffffffffffffffffffffffffffffffffff161461100e576040517f08c379a0000000000000000000000000000000000000000000000000000000008152600401611005906126eb565b60405180910390fd5b6004600082815260200190815260200160002060006101000a81549073ffffffffffffffffffffffffffffffffffffffff02191690556001600360008573ffffffffffffffffffffffffffffffffffffffff1673ffffffffffffffffffffffffffffffffffffffff168152602001908152602001600020600082825403925050819055506001600360008473ffffffffffffffffffffffffffffffffffffffff1673ffffffffffffffffffffffffffffffffffffffff16815260200190815260200160002060008282540192505081905550816002600083815260200190815260200160002060006101000a81548173ffffffffffffffffffffffffffffffffffffffff021916908373ffffffffffffffffffffffffffffffffffffffff160217905550808273ffffffffffffffffffffffffffffffffffffffff168473ffffffffffffffffffffffffffffffffffffffff167fddf252ad1be2c89b69c2b068fc378daa952ba7f163c4a11628f55a4df523b3ef60405160405180910390a461119a838383600161149a565b505050565b60006002600083815260200190815260200160002060009054906101000a900473ffffffffffffffffffffffffffffffffffffffff169050919050565b8173ffffffffffffffffffffffffffffffffffffffff168373ffffffffffffffffffffffffffffffffffffffff160361124a576040517f08c379a0000000000000000000000000000000000000000000000000000000008152600401611241906127e9565b60405180910390fd5b80600560008573ffffffffffffffffffffffffffffffffffffffff1673ffffffffffffffffffffffffffffffffffffffff16815260200190815260200160002060008473ffffffffffffffffffffffffffffffffffffffff1673ffffffffffffffffffffffffffffffffffffffff16815260200190815260200160002060006101000a81548160ff0219169083151502179055508173ffffffffffffffffffffffffffffffffffffffff168373ffffffffffffffffffffffffffffffffffffffff167f17307eab39ab6107e8899845ad3d59bd9653f200f220920489ca2b5937696c318360405161133b9190611976565b60405180910390a3505050565b611353848484610ea6565b61135f848484846114a0565b61139e576040517f08c379a00000000000000000000000000000000000000000000000000000000081526004016113959061287b565b60405180910390fd5b50505050565b60008073ffffffffffffffffffffffffffffffffffffffff166113c68361119f565b73ffffffffffffffffffffffffffffffffffffffff1614159050919050565b600081600001549050919050565b61140d828260405180602001604052806000815250611627565b5050565b61141a826113a4565b611459576040517f08c379a00000000000000000000000000000000000000000000000000000000081526004016114509061290d565b60405180910390fd5b806008600084815260200190815260200160002090816114799190612ad9565b505050565b6001816000016000828254019250508190555050565b50505050565b50505050565b60006114c18473ffffffffffffffffffffffffffffffffffffffff16611682565b1561161a578373ffffffffffffffffffffffffffffffffffffffff1663150b7a026114ea610d50565b8786866040518563ffffffff1660e01b815260040161150c9493929190612c00565b6020604051808303816000875af192505050801561154857506040513d601f19601f820116820180604052508101906115459190612c61565b60015b6115ca573d8060008114611578576040519150601f19603f3d011682016040523d82523d6000602084013e61157d565b606091505b5060008151036115c2576040517f08c379a00000000000000000000000000000000000000000000000000000000081526004016115b99061287b565b60405180910390fd5b805181602001fd5b63150b7a0260e01b7bffffffffffffffffffffffffffffffffffffffffffffffffffffffff1916817bffffffffffffffffffffffffffffffffffffffffffffffffffffffff19161491505061161f565b600190505b949350505050565b61163183836116a5565b61163e60008484846114a0565b61167d576040517f08c379a00000000000000000000000000000000000000000000000000000000081526004016116749061287b565b60405180910390fd5b505050565b6000808273ffffffffffffffffffffffffffffffffffffffff163b119050919050565b600073ffffffffffffffffffffffffffffffffffffffff168273ffffffffffffffffffffffffffffffffffffffff1603611714576040517f08c379a000000000000000000000000000000000000000000000000000000000815260040161170b90612cda565b60405180910390fd5b61171d816113a4565b1561175d576040517f08c379a000000000000000000000000000000000000000000000000000000000815260040161175490612d46565b60405180910390fd5b61176b600083836001611494565b611774816113a4565b156117b4576040517f08c379a00000000000000000000000000000000000000000000000000000000081526004016117ab90612d46565b60405180910390fd5b6001600360008473ffffffffffffffffffffffffffffffffffffffff1673ffffffffffffffffffffffffffffffffffffffff16815260200190815260200160002060008282540192505081905550816002600083815260200190815260200160002060006101000a81548173ffffffffffffffffffffffffffffffffffffffff021916908373ffffffffffffffffffffffffffffffffffffffff160217905550808273ffffffffffffffffffffffffffffffffffffffff16600073ffffffffffffffffffffffffffffffffffffffff167fddf252ad1be2c89b69c2b068fc378daa952ba7f163c4a11628f55a4df523b3ef60405160405180910390a46118be60008383600161149a565b5050565b6000604051905090565b600080fd5b600080fd5b60007fffffffff0000000000000000000000000000000000000000000000000000000082169050919050565b61190b816118d6565b811461191657600080fd5b50565b60008135905061192881611902565b92915050565b600060208284031215611944576119436118cc565b5b600061195284828501611919565b91505092915050565b60008115159050919050565b6119708161195b565b82525050565b600060208201905061198b6000830184611967565b92915050565b600081519050919050565b600082825260208201905092915050565b60005b838110156119cb5780820151818401526020810190506119b0565b60008484015250505050565b6000601f19601f8301169050919050565b60006119f382611991565b6119fd818561199c565b9350611a0d8185602086016119ad565b611a16816119d7565b840191505092915050565b60006020820190508181036000830152611a3b81846119e8565b905092915050565b6000819050919050565b611a5681611a43565b8114611a6157600080fd5b50565b600081359050611a7381611a4d565b92915050565b600060208284031215611a8f57611a8e6118cc565b5b6000611a9d84828501611a64565b91505092915050565b600073ffffffffffffffffffffffffffffffffffffffff82169050919050565b6000611ad182611aa6565b9050919050565b611ae181611ac6565b82525050565b6000602082019050611afc6000830184611ad8565b92915050565b611b0b81611ac6565b8114611b1657600080fd5b50565b600081359050611b2881611b02565b92915050565b60008060408385031215611b4557611b446118cc565b5b6000611b5385828601611b19565b9250506020611b6485828601611a64565b9150509250929050565b600080600060608486031215611b8757611b866118cc565b5b6000611b9586828701611b19565b9350506020611ba686828701611b19565b9250506040611bb786828701611a64565b9150509250925092565b600060208284031215611bd757611bd66118cc565b5b6000611be584828501611b19565b91505092915050565b611bf781611a43565b82525050565b6000602082019050611c126000830184611bee565b92915050565b611c218161195b565b8114611c2c57600080fd5b50565b600081359050611c3e81611c18565b92915050565b60008060408385031215611c5b57611c5a6118cc565b5b6000611c6985828601611b19565b9250506020611c7a85828601611c2f565b9150509250929050565b600080fd5b600080fd5b7f4e487b7100000000000000000000000000000000000000000000000000000000600052604160045260246000fd5b611cc6826119d7565b810181811067ffffffffffffffff82111715611ce557611ce4611c8e565b5b80604052505050565b6000611cf86118c2565b9050611d048282611cbd565b919050565b600067ffffffffffffffff821115611d2457611d23611c8e565b5b611d2d826119d7565b9050602081019050919050565b82818337600083830152505050565b6000611d5c611d5784611d09565b611cee565b905082815260208101848484011115611d7857611d77611c89565b5b611d83848285611d3a565b509392505050565b600082601f830112611da057611d9f611c84565b5b8135611db0848260208601611d49565b91505092915050565b60008060008060808587031215611dd357611dd26118cc565b5b6000611de187828801611b19565b9450506020611df287828801611b19565b9350506040611e0387828801611a64565b925050606085013567ffffffffffffffff811115611e2457611e236118d1565b5b611e3087828801611d8b565b91505092959194509250565b60008060408385031215611e5357611e526118cc565b5b6000611e6185828601611b19565b9250506020611e7285828601611b19565b9150509250929050565b600067ffffffffffffffff821115611e9757611e96611c8e565b5b611ea0826119d7565b9050602081019050919050565b6000611ec0611ebb84611e7c565b611cee565b905082815260208101848484011115611edc57611edb611c89565b5b611ee7848285611d3a565b509392505050565b600082601f830112611f0457611f03611c84565b5b8135611f14848260208601611ead565b91505092915050565b60008060408385031215611f3457611f336118cc565b5b6000611f4285828601611b19565b925050602083013567ffffffffffffffff811115611f6357611f626118d1565b5b611f6f85828601611eef565b9150509250929050565b600067ffffffffffffffff821115611f9457611f93611c8e565b5b602082029050602081019050919050565b600080fd5b6000611fbd611fb884611f79565b611cee565b90508083825260208201905060208402830185811115611fe057611fdf611fa5565b5b835b8181101561202757803567ffffffffffffffff81111561200557612004611c84565b5b8086016120128982611eef565b85526020850194505050602081019050611fe2565b5050509392505050565b600082601f83011261204657612045611c84565b5b8135612056848260208601611faa565b91505092915050565b60008060408385031215612076576120756118cc565b5b600061208485828601611b19565b925050602083013567ffffffffffffffff8111156120a5576120a46118d1565b5b6120b185828601612031565b9150509250929050565b600081519050919050565b600082825260208201905092915050565b6000819050602082019050919050565b6120f081611a43565b82525050565b600061210283836120e7565b60208301905092915050565b6000602082019050919050565b6000612126826120bb565b61213081856120c6565b935061213b836120d7565b8060005b8381101561216c57815161215388826120f6565b975061215e8361210e565b92505060018101905061213f565b5085935050505092915050565b60006020820190508181036000830152612193818461211b565b905092915050565b7f4e487b7100000000000000000000000000000000000000000000000000000000600052602260045260246000fd5b600060028204905060018216806121e257607f821691505b6020821081036121f5576121f461219b565b5b50919050565b7f4552433732313a20617070726f76616c20746f2063757272656e74206f776e6560008201527f7200000000000000000000000000000000000000000000000000000000000000602082015250565b600061225760218361199c565b9150612262826121fb565b604082019050919050565b600060208201905081810360008301526122868161224a565b9050919050565b7f4552433732313a20617070726f76652063616c6c6572206973206e6f7420746f60008201527f6b656e206f776e6572206f7220617070726f76656420666f7220616c6c000000602082015250565b60006122e9603d8361199c565b91506122f48261228d565b604082019050919050565b60006020820190508181036000830152612318816122dc565b9050919050565b7f4552433732313a2063616c6c6572206973206e6f7420746f6b656e206f776e6560008201527f72206f7220617070726f76656400000000000000000000000000000000000000602082015250565b600061237b602d8361199c565b91506123868261231f565b604082019050919050565b600060208201905081810360008301526123aa8161236e565b9050919050565b7f4552433732313a20696e76616c696420746f6b656e2049440000000000000000600082015250565b60006123e760188361199c565b91506123f2826123b1565b602082019050919050565b60006020820190508181036000830152612416816123da565b9050919050565b7f4552433732313a2061646472657373207a65726f206973206e6f74206120766160008201527f6c6964206f776e65720000000000000000000000000000000000000000000000602082015250565b600061247960298361199c565b91506124848261241d565b604082019050919050565b600060208201905081810360008301526124a88161246c565b9050919050565b7f54686520676976656e20746f6b656e206964206973206e6f742070726573656e60008201527f7400000000000000000000000000000000000000000000000000000000000000602082015250565b600061250b60218361199c565b9150612516826124af565b604082019050919050565b6000602082019050818103600083015261253a816124fe565b9050919050565b7f596f7520617265206e6f7420746865206f776e657220736f20796f752063616e60008201527f2774206d696e7420746f6b656e00000000000000000000000000000000000000602082015250565b600061259d602d8361199c565b91506125a882612541565b604082019050919050565b600060208201905081810360008301526125cc81612590565b9050919050565b7f4e487b7100000000000000000000000000000000000000000000000000000000600052603260045260246000fd5b7f4e487b7100000000000000000000000000000000000000000000000000000000600052601160045260246000fd5b600061263c82611a43565b91507fffffffffffffffffffffffffffffffffffffffffffffffffffffffffffffffff820361266e5761266d612602565b5b600182019050919050565b7f4552433732313a207472616e736665722066726f6d20696e636f72726563742060008201527f6f776e6572000000000000000000000000000000000000000000000000000000602082015250565b60006126d560258361199c565b91506126e082612679565b604082019050919050565b60006020820190508181036000830152612704816126c8565b9050919050565b7f4552433732313a207472616e7366657220746f20746865207a65726f2061646460008201527f7265737300000000000000000000000000000000000000000000000000000000602082015250565b600061276760248361199c565b91506127728261270b565b604082019050919050565b600060208201905081810360008301526127968161275a565b9050919050565b7f4552433732313a20617070726f766520746f2063616c6c657200000000000000600082015250565b60006127d360198361199c565b91506127de8261279d565b602082019050919050565b60006020820190508181036000830152612802816127c6565b9050919050565b7f4552433732313a207472616e7366657220746f206e6f6e20455243373231526560008201527f63656976657220696d706c656d656e7465720000000000000000000000000000602082015250565b600061286560328361199c565b915061287082612809565b604082019050919050565b6000602082019050818103600083015261289481612858565b9050919050565b7f74686520676976656e20746f6b656e206964206973206e6f742070726573656e60008201527f7400000000000000000000000000000000000000000000000000000000000000602082015250565b60006128f760218361199c565b91506129028261289b565b604082019050919050565b60006020820190508181036000830152612926816128ea565b9050919050565b60008190508160005260206000209050919050565b60006020601f8301049050919050565b600082821b905092915050565b60006008830261298f7fffffffffffffffffffffffffffffffffffffffffffffffffffffffffffffffff82612952565b6129998683612952565b95508019841693508086168417925050509392505050565b6000819050919050565b60006129d66129d16129cc84611a43565b6129b1565b611a43565b9050919050565b6000819050919050565b6129f0836129bb565b612a046129fc826129dd565b84845461295f565b825550505050565b600090565b612a19612a0c565b612a248184846129e7565b505050565b5b81811015612a4857612a3d600082612a11565b600181019050612a2a565b5050565b601f821115612a8d57612a5e8161292d565b612a6784612942565b81016020851015612a76578190505b612a8a612a8285612942565b830182612a29565b50505b505050565b600082821c905092915050565b6000612ab060001984600802612a92565b1980831691505092915050565b6000612ac98383612a9f565b9150826002028217905092915050565b612ae282611991565b67ffffffffffffffff811115612afb57612afa611c8e565b5b612b0582546121ca565b612b10828285612a4c565b600060209050601f831160018114612b435760008415612b31578287015190505b612b3b8582612abd565b865550612ba3565b601f198416612b518661292d565b60005b82811015612b7957848901518255600182019150602085019450602081019050612b54565b86831015612b965784890151612b92601f891682612a9f565b8355505b6001600288020188555050505b505050505050565b600081519050919050565b600082825260208201905092915050565b6000612bd282612bab565b612bdc8185612bb6565b9350612bec8185602086016119ad565b612bf5816119d7565b840191505092915050565b6000608082019050612c156000830187611ad8565b612c226020830186611ad8565b612c2f6040830185611bee565b8181036060830152612c418184612bc7565b905095945050505050565b600081519050612c5b81611902565b92915050565b600060208284031215612c7757612c766118cc565b5b6000612c8584828501612c4c565b91505092915050565b7f4552433732313a206d696e7420746f20746865207a65726f2061646472657373600082015250565b6000612cc460208361199c565b9150612ccf82612c8e565b602082019050919050565b60006020820190508181036000830152612cf381612cb7565b9050919050565b7f4552433732313a20746f6b656e20616c7265616479206d696e74656400000000600082015250565b6000612d30601c8361199c565b9150612d3b82612cfa565b602082019050919050565b60006020820190508181036000830152612d5f81612d23565b905091905056fea2646970667358221220fadeb8670d82abe7f8de1db93ea90fcb173c6b8f8a67108630a554dbe7dd898a64736f6c63430008110033",
  "linkReferences": {},
  "deployedLinkReferences": {}
}